{"contracts/AuctionEngine.sol":{"AuctionEngine":{"abi":[{"inputs":[],"stateMutability":"nonpayable","type":"constructor"},{"anonymous":false,"inputs":[{"indexed":false,"internalType":"uint256","name":"index","type":"uint256"},{"indexed":false,"internalType":"string","name":"itemName","type":"string"},{"indexed":false,"internalType":"uint256","name":"startingPrice","type":"uint256"},{"indexed":false,"internalType":"uint256","name":"duration","type":"uint256"}],"name":"AuctionCreated","type":"event"},{"anonymous":false,"inputs":[{"indexed":false,"internalType":"uint256","name":"index","type":"uint256"},{"indexed":false,"internalType":"uint256","name":"finalPrice","type":"uint256"},{"indexed":false,"internalType":"address","name":"winner","type":"address"}],"name":"AuctionEnded","type":"event"},{"inputs":[{"internalType":"uint256","name":"","type":"uint256"}],"name":"auctions","outputs":[{"internalType":"address payable","name":"seller","type":"address"},{"internalType":"uint256","name":"startingPrice","type":"uint256"},{"internalType":"uint256","name":"finalPrice","type":"uint256"},{"internalType":"uint256","name":"startAt","type":"uint256"},{"internalType":"uint256","name":"endsAt","type":"uint256"},{"internalType":"uint256","name":"discountRate","type":"uint256"},{"internalType":"string","name":"item","type":"string"},{"internalType":"bool","name":"stopped","type":"bool"}],"stateMutability":"view","type":"function"},{"inputs":[{"internalType":"uint256","name":"index","type":"uint256"}],"name":"buy","outputs":[],"stateMutability":"payable","type":"function"},{"inputs":[{"internalType":"uint256","name":"_startingPrice","type":"uint256"},{"internalType":"uint256","name":"_discountRate","type":"uint256"},{"internalType":"string","name":"_item","type":"string"},{"internalType":"uint256","name":"_duration","type":"uint256"}],"name":"createAuction","outputs":[],"stateMutability":"nonpayable","type":"function"},{"inputs":[{"internalType":"uint256","name":"index","type":"uint256"}],"name":"getPriceFor","outputs":[{"internalType":"uint256","name":"","type":"uint256"}],"stateMutability":"view","type":"function"},{"inputs":[],"name":"owner","outputs":[{"internalType":"address","name":"","type":"address"}],"stateMutability":"view","type":"function"}],"evm":{"bytecode":{"linkReferences":{},"object":"608060405234801561001057600080fd5b5061002b67784117e42cf96e6e60c01b61008a60201b60201c565b6100456749abe6d5dc9926fe60c01b61008a60201b60201c565b336000806101000a81548173ffffffffffffffffffffffffffffffffffffffff021916908373ffffffffffffffffffffffffffffffffffffffff16021790555061008d565b50565b6118168061009c6000396000f3fe60806040526004361061004a5760003560e01c80634534cd9c1461004f578063571a26a01461008c5780638da5cb5b146100d0578063d96a094a146100fb578063e9835d1514610117575b600080fd5b34801561005b57600080fd5b5061007660048036038101906100719190610e09565b610140565b6040516100839190610e45565b60405180910390f35b34801561009857600080fd5b506100b360048036038101906100ae9190610e09565b610434565b6040516100c7989796959493929190610f4c565b60405180910390f35b3480156100dc57600080fd5b506100e5610541565b6040516100f29190610ff2565b60405180910390f35b61011560048036038101906101109190610e09565b610565565b005b34801561012357600080fd5b5061013e60048036038101906101399190611072565b610a3a565b005b60006101566767d5711c67daf39660c01b610db4565b61016a674d8559034e323e1b60c01b610db4565b61017e67d13edadb1eb9a5f460c01b610db4565b600060018381548110610194576101936110fa565b5b9060005260206000209060080201604051806101000160405290816000820160009054906101000a900473ffffffffffffffffffffffffffffffffffffffff1673ffffffffffffffffffffffffffffffffffffffff1673ffffffffffffffffffffffffffffffffffffffff168152602001600182015481526020016002820154815260200160038201548152602001600482015481526020016005820154815260200160068201805461024690611158565b80601f016020809104026020016040519081016040528092919081815260200182805461027290611158565b80156102bf5780601f10610294576101008083540402835291602001916102bf565b820191906000526020600020905b8154815290600101906020018083116102a257829003601f168201915b505050505081526020016007820160009054906101000a900460ff16151515158152505090506102f9671aacdd181200f0de60c01b610db4565b61030d6702a6edcf43abd8b760c01b610db4565b61032167faeae987b19d07ca60c01b610db4565b8060e0015115610366576040517f08c379a000000000000000000000000000000000000000000000000000000000815260040161035d906111d5565b60405180910390fd5b61037a67acf6982bdee47ce060c01b610db4565b61038e676de5d032c28e6caf60c01b610db4565b6103a2672c4970cd984e396a60c01b610db4565b60008160600151426103b49190611224565b90506103ca67375a74ef554dd14060c01b610db4565b6103de671e9978e892c6099860c01b610db4565b6000818360a001516103f09190611258565b905061040667a05f85e4913cd36e60c01b610db4565b61041a6719587525cd19cff960c01b610db4565b80836020015161042a9190611224565b9350505050919050565b6001818154811061044457600080fd5b90600052602060002090600802016000915090508060000160009054906101000a900473ffffffffffffffffffffffffffffffffffffffff16908060010154908060020154908060030154908060040154908060050154908060060180546104ab90611158565b80601f01602080910402602001604051908101604052809291908181526020018280546104d790611158565b80156105245780601f106104f957610100808354040283529160200191610524565b820191906000526020600020905b81548152906001019060200180831161050757829003601f168201915b5050505050908060070160009054906101000a900460ff16905088565b60008054906101000a900473ffffffffffffffffffffffffffffffffffffffff1681565b61057967b42d39ad3cc4338f60c01b610db4565b61058d67fcdbdf4cb3dad1b160c01b610db4565b6105a16738dcda74ff79c47e60c01b610db4565b6000600182815481106105b7576105b66110fa565b5b906000526020600020906008020190506105db6712f7fc00b0fca71760c01b610db4565b6105ef67b02fc89a3046b6e260c01b610db4565b610603670fe85460d4dcd09e60c01b610db4565b8060070160009054906101000a900460ff1615610655576040517f08c379a000000000000000000000000000000000000000000000000000000000815260040161064c906111d5565b60405180910390fd5b6106696707a7709f10084bcc60c01b610db4565b61067d67a6b5bdd35886129560c01b610db4565b61069167acb836bc8e3b4a4860c01b610db4565b6106a567d0b4660af7a98d8360c01b610db4565b806004015442106106eb576040517f08c379a00000000000000000000000000000000000000000000000000000000081526004016106e2906112e6565b60405180910390fd5b6106ff67e7fa03ef032871b760c01b610db4565b610713672034a5d363e3443e60c01b610db4565b61072767524355a62939172b60c01b610db4565b600061073283610140565b90506107486719eed7d08f144e0160c01b610db4565b61075c67131d9bf72db3a77560c01b610db4565b6107706739e2a0c325c3be1860c01b610db4565b803410156107b3576040517f08c379a00000000000000000000000000000000000000000000000000000000081526004016107aa90611352565b60405180910390fd5b6107c7678a23233195ccf36960c01b610db4565b6107db671a1a719d51a0bbcc60c01b610db4565b60018260070160006101000a81548160ff02191690831515021790555061080c67d413b8c4ddfa300760c01b610db4565b8082600201819055506108296794e9961a926efccc60c01b610db4565b61083d67e6c78ce786c62d8e60c01b610db4565b6000813461084b9190611224565b90506108616746361283711e6bb160c01b610db4565b61087567a37a64e88cd0446d60c01b610db4565b6000811115610906576108926786b95908d606515460c01b610db4565b6108a6678e4332d5c5c3cd3260c01b610db4565b6108ba671d2864e93eca153c60c01b610db4565b3373ffffffffffffffffffffffffffffffffffffffff166108fc829081150290604051600060405180830381858888f19350505050158015610900573d6000803e3d6000fd5b5061091b565b61091a67cfaf3d5a6d767c9860c01b610db4565b5b61092f67e5780c9b3bcd368c60c01b610db4565b610943677a6b0edb274859b260c01b610db4565b8260000160009054906101000a900473ffffffffffffffffffffffffffffffffffffffff1673ffffffffffffffffffffffffffffffffffffffff166108fc6064600a856109909190611258565b61099a91906113a1565b846109a59190611224565b9081150290604051600060405180830381858888f193505050501580156109d0573d6000803e3d6000fd5b506109e567f8d6e864a793f0c660c01b610db4565b6109f96764e5e040fbeecaba60c01b610db4565b7fbafc4bda865d4d1f8d5b16f883e996fde0fe71112fac81503876d35375694400848333604051610a2c939291906113d2565b60405180910390a150505050565b610a4e6725d6b84801237cf860c01b610db4565b610a6267781f56be641c9dd060c01b610db4565b610a7667c25b7b4293951bf960c01b610db4565b60008082148015610a975750610a9667c2c5f0653a01f23960c01b610db7565b5b80610ab25750610ab167a27c825317d42e5260c01b610dc2565b5b610abc5781610ac1565b6202a3005b9050610ad767919adf17cbb0efc360c01b610db4565b610aeb679da687ca2470a73a60c01b610db4565b610aff67aabfafeb876136fb60c01b610db4565b8085610b0b9190611258565b861015610b4d576040517f08c379a0000000000000000000000000000000000000000000000000000000008152600401610b4490611455565b60405180910390fd5b610b6167a50cc39222efb7d860c01b610db4565b610b75676f697edc350e791660c01b610db4565b610b8967a3efc2bbc227ab3060c01b610db4565b60006040518061010001604052803373ffffffffffffffffffffffffffffffffffffffff1681526020018881526020018881526020014281526020018342610bd19190611475565b815260200187815260200186868080601f016020809104026020016040519081016040528093929190818152602001838380828437600081840152601f19601f820116905080830192505050505050508152602001600015158152509050610c436717df9644bdd124bf60c01b610db4565b610c5767699043a19bc1b15960c01b610db4565b600181908060018154018082558091505060019003906000526020600020906008020160009091909190915060008201518160000160006101000a81548173ffffffffffffffffffffffffffffffffffffffff021916908373ffffffffffffffffffffffffffffffffffffffff1602179055506020820151816001015560408201518160020155606082015181600301556080820151816004015560a0820151816005015560c0820151816006019081610d119190611684565b5060e08201518160070160006101000a81548160ff0219169083151502179055505050610d4867ded12f6c954f1acf60c01b610db4565b610d5c6768f76050fcac0fa760c01b610db4565b7f5bf34ed94988e5dcdc7d1faaa54eb1d3b55f45d5f11457e235afb21a8ebbe73c60018080549050610d8e9190611224565b86868a86604051610da3959493929190611792565b60405180910390a150505050505050565b50565b600060019050919050565b6000919050565b600080fd5b600080fd5b6000819050919050565b610de681610dd3565b8114610df157600080fd5b50565b600081359050610e0381610ddd565b92915050565b600060208284031215610e1f57610e1e610dc9565b5b6000610e2d84828501610df4565b91505092915050565b610e3f81610dd3565b82525050565b6000602082019050610e5a6000830184610e36565b92915050565b600073ffffffffffffffffffffffffffffffffffffffff82169050919050565b6000610e8b82610e60565b9050919050565b610e9b81610e80565b82525050565b600081519050919050565b600082825260208201905092915050565b60005b83811015610edb578082015181840152602081019050610ec0565b60008484015250505050565b6000601f19601f8301169050919050565b6000610f0382610ea1565b610f0d8185610eac565b9350610f1d818560208601610ebd565b610f2681610ee7565b840191505092915050565b60008115159050919050565b610f4681610f31565b82525050565b600061010082019050610f62600083018b610e92565b610f6f602083018a610e36565b610f7c6040830189610e36565b610f896060830188610e36565b610f966080830187610e36565b610fa360a0830186610e36565b81810360c0830152610fb58185610ef8565b9050610fc460e0830184610f3d565b9998505050505050505050565b6000610fdc82610e60565b9050919050565b610fec81610fd1565b82525050565b60006020820190506110076000830184610fe3565b92915050565b600080fd5b600080fd5b600080fd5b60008083601f8401126110325761103161100d565b5b8235905067ffffffffffffffff81111561104f5761104e611012565b5b60208301915083600182028301111561106b5761106a611017565b5b9250929050565b60008060008060006080868803121561108e5761108d610dc9565b5b600061109c88828901610df4565b95505060206110ad88828901610df4565b945050604086013567ffffffffffffffff8111156110ce576110cd610dce565b5b6110da8882890161101c565b935093505060606110ed88828901610df4565b9150509295509295909350565b7f4e487b7100000000000000000000000000000000000000000000000000000000600052603260045260246000fd5b7f4e487b7100000000000000000000000000000000000000000000000000000000600052602260045260246000fd5b6000600282049050600182168061117057607f821691505b60208210810361118357611182611129565b5b50919050565b7f53746f7070656421000000000000000000000000000000000000000000000000600082015250565b60006111bf600883610eac565b91506111ca82611189565b602082019050919050565b600060208201905081810360008301526111ee816111b2565b9050919050565b7f4e487b7100000000000000000000000000000000000000000000000000000000600052601160045260246000fd5b600061122f82610dd3565b915061123a83610dd3565b9250828203905081811115611252576112516111f5565b5b92915050565b600061126382610dd3565b915061126e83610dd3565b925082820261127c81610dd3565b91508282048414831517611293576112926111f5565b5b5092915050565b7f456e646564210000000000000000000000000000000000000000000000000000600082015250565b60006112d0600683610eac565b91506112db8261129a565b602082019050919050565b600060208201905081810360008301526112ff816112c3565b9050919050565b7f6e6f7420656e6f7567682066756e647300000000000000000000000000000000600082015250565b600061133c601083610eac565b915061134782611306565b602082019050919050565b6000602082019050818103600083015261136b8161132f565b9050919050565b7f4e487b7100000000000000000000000000000000000000000000000000000000600052601260045260246000fd5b60006113ac82610dd3565b91506113b783610dd3565b9250826113c7576113c6611372565b5b828204905092915050565b60006060820190506113e76000830186610e36565b6113f46020830185610e36565b6114016040830184610fe3565b949350505050565b7f696e636f7272656374207374617274696e672070726963650000000000000000600082015250565b600061143f601883610eac565b915061144a82611409565b602082019050919050565b6000602082019050818103600083015261146e81611432565b9050919050565b600061148082610dd3565b915061148b83610dd3565b92508282019050808211156114a3576114a26111f5565b5b92915050565b7f4e487b7100000000000000000000000000000000000000000000000000000000600052604160045260246000fd5b60008190508160005260206000209050919050565b60006020601f8301049050919050565b600082821b905092915050565b60006008830261153a7fffffffffffffffffffffffffffffffffffffffffffffffffffffffffffffffff826114fd565b61154486836114fd565b95508019841693508086168417925050509392505050565b6000819050919050565b600061158161157c61157784610dd3565b61155c565b610dd3565b9050919050565b6000819050919050565b61159b83611566565b6115af6115a782611588565b84845461150a565b825550505050565b600090565b6115c46115b7565b6115cf818484611592565b505050565b5b818110156115f3576115e86000826115bc565b6001810190506115d5565b5050565b601f82111561163857611609816114d8565b611612846114ed565b81016020851015611621578190505b61163561162d856114ed565b8301826115d4565b50505b505050565b600082821c905092915050565b600061165b6000198460080261163d565b1980831691505092915050565b6000611674838361164a565b9150826002028217905092915050565b61168d82610ea1565b67ffffffffffffffff8111156116a6576116a56114a9565b5b6116b08254611158565b6116bb8282856115f7565b600060209050601f8311600181146116ee57600084156116dc578287015190505b6116e68582611668565b86555061174e565b601f1984166116fc866114d8565b60005b82811015611724578489015182556001820191506020850194506020810190506116ff565b86831015611741578489015161173d601f89168261164a565b8355505b6001600288020188555050505b505050505050565b82818337600083830152505050565b60006117718385610eac565b935061177e838584611756565b61178783610ee7565b840190509392505050565b60006080820190506117a76000830188610e36565b81810360208301526117ba818688611765565b90506117c96040830185610e36565b6117d66060830184610e36565b969550505050505056fea26469706673582212203f27b8d35f1c777a5bfc84ab89a988a2b6aa49506a0896438fdfbc5e17f23e3964736f6c63430008120033","opcodes":"PUSH1 0x80 PUSH1 0x40 MSTORE CALLVALUE DUP1 ISZERO PUSH2 0x10 JUMPI PUSH1 0x0 DUP1 REVERT JUMPDEST POP PUSH2 0x2B PUSH8 0x784117E42CF96E6E PUSH1 0xC0 SHL PUSH2 0x8A PUSH1 0x20 SHL PUSH1 0x20 SHR JUMP JUMPDEST PUSH2 0x45 PUSH8 0x49ABE6D5DC9926FE PUSH1 0xC0 SHL PUSH2 0x8A PUSH1 0x20 SHL PUSH1 0x20 SHR JUMP JUMPDEST CALLER PUSH1 0x0 DUP1 PUSH2 0x100 EXP DUP2 SLOAD DUP2 PUSH20 0xFFFFFFFFFFFFFFFFFFFFFFFFFFFFFFFFFFFFFFFF MUL NOT AND SWAP1 DUP4 PUSH20 0xFFFFFFFFFFFFFFFFFFFFFFFFFFFFFFFFFFFFFFFF AND MUL OR SWAP1 SSTORE POP PUSH2 0x8D JUMP JUMPDEST POP JUMP JUMPDEST PUSH2 0x1816 DUP1 PUSH2 0x9C PUSH1 0x0 CODECOPY PUSH1 0x0 RETURN INVALID PUSH1 0x80 PUSH1 0x40 MSTORE PUSH1 0x4 CALLDATASIZE LT PUSH2 0x4A JUMPI PUSH1 0x0 CALLDATALOAD PUSH1 0xE0 SHR DUP1 PUSH4 0x4534CD9C EQ PUSH2 0x4F JUMPI DUP1 PUSH4 0x571A26A0 EQ PUSH2 0x8C JUMPI DUP1 PUSH4 0x8DA5CB5B EQ PUSH2 0xD0 JUMPI DUP1 PUSH4 0xD96A094A EQ PUSH2 0xFB JUMPI DUP1 PUSH4 0xE9835D15 EQ PUSH2 0x117 JUMPI JUMPDEST PUSH1 0x0 DUP1 REVERT JUMPDEST CALLVALUE DUP1 ISZERO PUSH2 0x5B JUMPI PUSH1 0x0 DUP1 REVERT JUMPDEST POP PUSH2 0x76 PUSH1 0x4 DUP1 CALLDATASIZE SUB DUP2 ADD SWAP1 PUSH2 0x71 SWAP2 SWAP1 PUSH2 0xE09 JUMP JUMPDEST PUSH2 0x140 JUMP JUMPDEST PUSH1 0x40 MLOAD PUSH2 0x83 SWAP2 SWAP1 PUSH2 0xE45 JUMP JUMPDEST PUSH1 0x40 MLOAD DUP1 SWAP2 SUB SWAP1 RETURN JUMPDEST CALLVALUE DUP1 ISZERO PUSH2 0x98 JUMPI PUSH1 0x0 DUP1 REVERT JUMPDEST POP PUSH2 0xB3 PUSH1 0x4 DUP1 CALLDATASIZE SUB DUP2 ADD SWAP1 PUSH2 0xAE SWAP2 SWAP1 PUSH2 0xE09 JUMP JUMPDEST PUSH2 0x434 JUMP JUMPDEST PUSH1 0x40 MLOAD PUSH2 0xC7 SWAP9 SWAP8 SWAP7 SWAP6 SWAP5 SWAP4 SWAP3 SWAP2 SWAP1 PUSH2 0xF4C JUMP JUMPDEST PUSH1 0x40 MLOAD DUP1 SWAP2 SUB SWAP1 RETURN JUMPDEST CALLVALUE DUP1 ISZERO PUSH2 0xDC JUMPI PUSH1 0x0 DUP1 REVERT JUMPDEST POP PUSH2 0xE5 PUSH2 0x541 JUMP JUMPDEST PUSH1 0x40 MLOAD PUSH2 0xF2 SWAP2 SWAP1 PUSH2 0xFF2 JUMP JUMPDEST PUSH1 0x40 MLOAD DUP1 SWAP2 SUB SWAP1 RETURN JUMPDEST PUSH2 0x115 PUSH1 0x4 DUP1 CALLDATASIZE SUB DUP2 ADD SWAP1 PUSH2 0x110 SWAP2 SWAP1 PUSH2 0xE09 JUMP JUMPDEST PUSH2 0x565 JUMP JUMPDEST STOP JUMPDEST CALLVALUE DUP1 ISZERO PUSH2 0x123 JUMPI PUSH1 0x0 DUP1 REVERT JUMPDEST POP PUSH2 0x13E PUSH1 0x4 DUP1 CALLDATASIZE SUB DUP2 ADD SWAP1 PUSH2 0x139 SWAP2 SWAP1 PUSH2 0x1072 JUMP JUMPDEST PUSH2 0xA3A JUMP JUMPDEST STOP JUMPDEST PUSH1 0x0 PUSH2 0x156 PUSH8 0x67D5711C67DAF396 PUSH1 0xC0 SHL PUSH2 0xDB4 JUMP JUMPDEST PUSH2 0x16A PUSH8 0x4D8559034E323E1B PUSH1 0xC0 SHL PUSH2 0xDB4 JUMP JUMPDEST PUSH2 0x17E PUSH8 0xD13EDADB1EB9A5F4 PUSH1 0xC0 SHL PUSH2 0xDB4 JUMP JUMPDEST PUSH1 0x0 PUSH1 0x1 DUP4 DUP2 SLOAD DUP2 LT PUSH2 0x194 JUMPI PUSH2 0x193 PUSH2 0x10FA JUMP JUMPDEST JUMPDEST SWAP1 PUSH1 0x0 MSTORE PUSH1 0x20 PUSH1 0x0 KECCAK256 SWAP1 PUSH1 0x8 MUL ADD PUSH1 0x40 MLOAD DUP1 PUSH2 0x100 ADD PUSH1 0x40 MSTORE SWAP1 DUP2 PUSH1 0x0 DUP3 ADD PUSH1 0x0 SWAP1 SLOAD SWAP1 PUSH2 0x100 EXP SWAP1 DIV PUSH20 0xFFFFFFFFFFFFFFFFFFFFFFFFFFFFFFFFFFFFFFFF AND PUSH20 0xFFFFFFFFFFFFFFFFFFFFFFFFFFFFFFFFFFFFFFFF AND PUSH20 0xFFFFFFFFFFFFFFFFFFFFFFFFFFFFFFFFFFFFFFFF AND DUP2 MSTORE PUSH1 0x20 ADD PUSH1 0x1 DUP3 ADD SLOAD DUP2 MSTORE PUSH1 0x20 ADD PUSH1 0x2 DUP3 ADD SLOAD DUP2 MSTORE PUSH1 0x20 ADD PUSH1 0x3 DUP3 ADD SLOAD DUP2 MSTORE PUSH1 0x20 ADD PUSH1 0x4 DUP3 ADD SLOAD DUP2 MSTORE PUSH1 0x20 ADD PUSH1 0x5 DUP3 ADD SLOAD DUP2 MSTORE PUSH1 0x20 ADD PUSH1 0x6 DUP3 ADD DUP1 SLOAD PUSH2 0x246 SWAP1 PUSH2 0x1158 JUMP JUMPDEST DUP1 PUSH1 0x1F ADD PUSH1 0x20 DUP1 SWAP2 DIV MUL PUSH1 0x20 ADD PUSH1 0x40 MLOAD SWAP1 DUP2 ADD PUSH1 0x40 MSTORE DUP1 SWAP3 SWAP2 SWAP1 DUP2 DUP2 MSTORE PUSH1 0x20 ADD DUP3 DUP1 SLOAD PUSH2 0x272 SWAP1 PUSH2 0x1158 JUMP JUMPDEST DUP1 ISZERO PUSH2 0x2BF JUMPI DUP1 PUSH1 0x1F LT PUSH2 0x294 JUMPI PUSH2 0x100 DUP1 DUP4 SLOAD DIV MUL DUP4 MSTORE SWAP2 PUSH1 0x20 ADD SWAP2 PUSH2 0x2BF JUMP JUMPDEST DUP3 ADD SWAP2 SWAP1 PUSH1 0x0 MSTORE PUSH1 0x20 PUSH1 0x0 KECCAK256 SWAP1 JUMPDEST DUP2 SLOAD DUP2 MSTORE SWAP1 PUSH1 0x1 ADD SWAP1 PUSH1 0x20 ADD DUP1 DUP4 GT PUSH2 0x2A2 JUMPI DUP3 SWAP1 SUB PUSH1 0x1F AND DUP3 ADD SWAP2 JUMPDEST POP POP POP POP POP DUP2 MSTORE PUSH1 0x20 ADD PUSH1 0x7 DUP3 ADD PUSH1 0x0 SWAP1 SLOAD SWAP1 PUSH2 0x100 EXP SWAP1 DIV PUSH1 0xFF AND ISZERO ISZERO ISZERO ISZERO DUP2 MSTORE POP POP SWAP1 POP PUSH2 0x2F9 PUSH8 0x1AACDD181200F0DE PUSH1 0xC0 SHL PUSH2 0xDB4 JUMP JUMPDEST PUSH2 0x30D PUSH8 0x2A6EDCF43ABD8B7 PUSH1 0xC0 SHL PUSH2 0xDB4 JUMP JUMPDEST PUSH2 0x321 PUSH8 0xFAEAE987B19D07CA PUSH1 0xC0 SHL PUSH2 0xDB4 JUMP JUMPDEST DUP1 PUSH1 0xE0 ADD MLOAD ISZERO PUSH2 0x366 JUMPI PUSH1 0x40 MLOAD PUSH32 0x8C379A000000000000000000000000000000000000000000000000000000000 DUP2 MSTORE PUSH1 0x4 ADD PUSH2 0x35D SWAP1 PUSH2 0x11D5 JUMP JUMPDEST PUSH1 0x40 MLOAD DUP1 SWAP2 SUB SWAP1 REVERT JUMPDEST PUSH2 0x37A PUSH8 0xACF6982BDEE47CE0 PUSH1 0xC0 SHL PUSH2 0xDB4 JUMP JUMPDEST PUSH2 0x38E PUSH8 0x6DE5D032C28E6CAF PUSH1 0xC0 SHL PUSH2 0xDB4 JUMP JUMPDEST PUSH2 0x3A2 PUSH8 0x2C4970CD984E396A PUSH1 0xC0 SHL PUSH2 0xDB4 JUMP JUMPDEST PUSH1 0x0 DUP2 PUSH1 0x60 ADD MLOAD TIMESTAMP PUSH2 0x3B4 SWAP2 SWAP1 PUSH2 0x1224 JUMP JUMPDEST SWAP1 POP PUSH2 0x3CA PUSH8 0x375A74EF554DD140 PUSH1 0xC0 SHL PUSH2 0xDB4 JUMP JUMPDEST PUSH2 0x3DE PUSH8 0x1E9978E892C60998 PUSH1 0xC0 SHL PUSH2 0xDB4 JUMP JUMPDEST PUSH1 0x0 DUP2 DUP4 PUSH1 0xA0 ADD MLOAD PUSH2 0x3F0 SWAP2 SWAP1 PUSH2 0x1258 JUMP JUMPDEST SWAP1 POP PUSH2 0x406 PUSH8 0xA05F85E4913CD36E PUSH1 0xC0 SHL PUSH2 0xDB4 JUMP JUMPDEST PUSH2 0x41A PUSH8 0x19587525CD19CFF9 PUSH1 0xC0 SHL PUSH2 0xDB4 JUMP JUMPDEST DUP1 DUP4 PUSH1 0x20 ADD MLOAD PUSH2 0x42A SWAP2 SWAP1 PUSH2 0x1224 JUMP JUMPDEST SWAP4 POP POP POP POP SWAP2 SWAP1 POP JUMP JUMPDEST PUSH1 0x1 DUP2 DUP2 SLOAD DUP2 LT PUSH2 0x444 JUMPI PUSH1 0x0 DUP1 REVERT JUMPDEST SWAP1 PUSH1 0x0 MSTORE PUSH1 0x20 PUSH1 0x0 KECCAK256 SWAP1 PUSH1 0x8 MUL ADD PUSH1 0x0 SWAP2 POP SWAP1 POP DUP1 PUSH1 0x0 ADD PUSH1 0x0 SWAP1 SLOAD SWAP1 PUSH2 0x100 EXP SWAP1 DIV PUSH20 0xFFFFFFFFFFFFFFFFFFFFFFFFFFFFFFFFFFFFFFFF AND SWAP1 DUP1 PUSH1 0x1 ADD SLOAD SWAP1 DUP1 PUSH1 0x2 ADD SLOAD SWAP1 DUP1 PUSH1 0x3 ADD SLOAD SWAP1 DUP1 PUSH1 0x4 ADD SLOAD SWAP1 DUP1 PUSH1 0x5 ADD SLOAD SWAP1 DUP1 PUSH1 0x6 ADD DUP1 SLOAD PUSH2 0x4AB SWAP1 PUSH2 0x1158 JUMP JUMPDEST DUP1 PUSH1 0x1F ADD PUSH1 0x20 DUP1 SWAP2 DIV MUL PUSH1 0x20 ADD PUSH1 0x40 MLOAD SWAP1 DUP2 ADD PUSH1 0x40 MSTORE DUP1 SWAP3 SWAP2 SWAP1 DUP2 DUP2 MSTORE PUSH1 0x20 ADD DUP3 DUP1 SLOAD PUSH2 0x4D7 SWAP1 PUSH2 0x1158 JUMP JUMPDEST DUP1 ISZERO PUSH2 0x524 JUMPI DUP1 PUSH1 0x1F LT PUSH2 0x4F9 JUMPI PUSH2 0x100 DUP1 DUP4 SLOAD DIV MUL DUP4 MSTORE SWAP2 PUSH1 0x20 ADD SWAP2 PUSH2 0x524 JUMP JUMPDEST DUP3 ADD SWAP2 SWAP1 PUSH1 0x0 MSTORE PUSH1 0x20 PUSH1 0x0 KECCAK256 SWAP1 JUMPDEST DUP2 SLOAD DUP2 MSTORE SWAP1 PUSH1 0x1 ADD SWAP1 PUSH1 0x20 ADD DUP1 DUP4 GT PUSH2 0x507 JUMPI DUP3 SWAP1 SUB PUSH1 0x1F AND DUP3 ADD SWAP2 JUMPDEST POP POP POP POP POP SWAP1 DUP1 PUSH1 0x7 ADD PUSH1 0x0 SWAP1 SLOAD SWAP1 PUSH2 0x100 EXP SWAP1 DIV PUSH1 0xFF AND SWAP1 POP DUP9 JUMP JUMPDEST PUSH1 0x0 DUP1 SLOAD SWAP1 PUSH2 0x100 EXP SWAP1 DIV PUSH20 0xFFFFFFFFFFFFFFFFFFFFFFFFFFFFFFFFFFFFFFFF AND DUP2 JUMP JUMPDEST PUSH2 0x579 PUSH8 0xB42D39AD3CC4338F PUSH1 0xC0 SHL PUSH2 0xDB4 JUMP JUMPDEST PUSH2 0x58D PUSH8 0xFCDBDF4CB3DAD1B1 PUSH1 0xC0 SHL PUSH2 0xDB4 JUMP JUMPDEST PUSH2 0x5A1 PUSH8 0x38DCDA74FF79C47E PUSH1 0xC0 SHL PUSH2 0xDB4 JUMP JUMPDEST PUSH1 0x0 PUSH1 0x1 DUP3 DUP2 SLOAD DUP2 LT PUSH2 0x5B7 JUMPI PUSH2 0x5B6 PUSH2 0x10FA JUMP JUMPDEST JUMPDEST SWAP1 PUSH1 0x0 MSTORE PUSH1 0x20 PUSH1 0x0 KECCAK256 SWAP1 PUSH1 0x8 MUL ADD SWAP1 POP PUSH2 0x5DB PUSH8 0x12F7FC00B0FCA717 PUSH1 0xC0 SHL PUSH2 0xDB4 JUMP JUMPDEST PUSH2 0x5EF PUSH8 0xB02FC89A3046B6E2 PUSH1 0xC0 SHL PUSH2 0xDB4 JUMP JUMPDEST PUSH2 0x603 PUSH8 0xFE85460D4DCD09E PUSH1 0xC0 SHL PUSH2 0xDB4 JUMP JUMPDEST DUP1 PUSH1 0x7 ADD PUSH1 0x0 SWAP1 SLOAD SWAP1 PUSH2 0x100 EXP SWAP1 DIV PUSH1 0xFF AND ISZERO PUSH2 0x655 JUMPI PUSH1 0x40 MLOAD PUSH32 0x8C379A000000000000000000000000000000000000000000000000000000000 DUP2 MSTORE PUSH1 0x4 ADD PUSH2 0x64C SWAP1 PUSH2 0x11D5 JUMP JUMPDEST PUSH1 0x40 MLOAD DUP1 SWAP2 SUB SWAP1 REVERT JUMPDEST PUSH2 0x669 PUSH8 0x7A7709F10084BCC PUSH1 0xC0 SHL PUSH2 0xDB4 JUMP JUMPDEST PUSH2 0x67D PUSH8 0xA6B5BDD358861295 PUSH1 0xC0 SHL PUSH2 0xDB4 JUMP JUMPDEST PUSH2 0x691 PUSH8 0xACB836BC8E3B4A48 PUSH1 0xC0 SHL PUSH2 0xDB4 JUMP JUMPDEST PUSH2 0x6A5 PUSH8 0xD0B4660AF7A98D83 PUSH1 0xC0 SHL PUSH2 0xDB4 JUMP JUMPDEST DUP1 PUSH1 0x4 ADD SLOAD TIMESTAMP LT PUSH2 0x6EB JUMPI PUSH1 0x40 MLOAD PUSH32 0x8C379A000000000000000000000000000000000000000000000000000000000 DUP2 MSTORE PUSH1 0x4 ADD PUSH2 0x6E2 SWAP1 PUSH2 0x12E6 JUMP JUMPDEST PUSH1 0x40 MLOAD DUP1 SWAP2 SUB SWAP1 REVERT JUMPDEST PUSH2 0x6FF PUSH8 0xE7FA03EF032871B7 PUSH1 0xC0 SHL PUSH2 0xDB4 JUMP JUMPDEST PUSH2 0x713 PUSH8 0x2034A5D363E3443E PUSH1 0xC0 SHL PUSH2 0xDB4 JUMP JUMPDEST PUSH2 0x727 PUSH8 0x524355A62939172B PUSH1 0xC0 SHL PUSH2 0xDB4 JUMP JUMPDEST PUSH1 0x0 PUSH2 0x732 DUP4 PUSH2 0x140 JUMP JUMPDEST SWAP1 POP PUSH2 0x748 PUSH8 0x19EED7D08F144E01 PUSH1 0xC0 SHL PUSH2 0xDB4 JUMP JUMPDEST PUSH2 0x75C PUSH8 0x131D9BF72DB3A775 PUSH1 0xC0 SHL PUSH2 0xDB4 JUMP JUMPDEST PUSH2 0x770 PUSH8 0x39E2A0C325C3BE18 PUSH1 0xC0 SHL PUSH2 0xDB4 JUMP JUMPDEST DUP1 CALLVALUE LT ISZERO PUSH2 0x7B3 JUMPI PUSH1 0x40 MLOAD PUSH32 0x8C379A000000000000000000000000000000000000000000000000000000000 DUP2 MSTORE PUSH1 0x4 ADD PUSH2 0x7AA SWAP1 PUSH2 0x1352 JUMP JUMPDEST PUSH1 0x40 MLOAD DUP1 SWAP2 SUB SWAP1 REVERT JUMPDEST PUSH2 0x7C7 PUSH8 0x8A23233195CCF369 PUSH1 0xC0 SHL PUSH2 0xDB4 JUMP JUMPDEST PUSH2 0x7DB PUSH8 0x1A1A719D51A0BBCC PUSH1 0xC0 SHL PUSH2 0xDB4 JUMP JUMPDEST PUSH1 0x1 DUP3 PUSH1 0x7 ADD PUSH1 0x0 PUSH2 0x100 EXP DUP2 SLOAD DUP2 PUSH1 0xFF MUL NOT AND SWAP1 DUP4 ISZERO ISZERO MUL OR SWAP1 SSTORE POP PUSH2 0x80C PUSH8 0xD413B8C4DDFA3007 PUSH1 0xC0 SHL PUSH2 0xDB4 JUMP JUMPDEST DUP1 DUP3 PUSH1 0x2 ADD DUP2 SWAP1 SSTORE POP PUSH2 0x829 PUSH8 0x94E9961A926EFCCC PUSH1 0xC0 SHL PUSH2 0xDB4 JUMP JUMPDEST PUSH2 0x83D PUSH8 0xE6C78CE786C62D8E PUSH1 0xC0 SHL PUSH2 0xDB4 JUMP JUMPDEST PUSH1 0x0 DUP2 CALLVALUE PUSH2 0x84B SWAP2 SWAP1 PUSH2 0x1224 JUMP JUMPDEST SWAP1 POP PUSH2 0x861 PUSH8 0x46361283711E6BB1 PUSH1 0xC0 SHL PUSH2 0xDB4 JUMP JUMPDEST PUSH2 0x875 PUSH8 0xA37A64E88CD0446D PUSH1 0xC0 SHL PUSH2 0xDB4 JUMP JUMPDEST PUSH1 0x0 DUP2 GT ISZERO PUSH2 0x906 JUMPI PUSH2 0x892 PUSH8 0x86B95908D6065154 PUSH1 0xC0 SHL PUSH2 0xDB4 JUMP JUMPDEST PUSH2 0x8A6 PUSH8 0x8E4332D5C5C3CD32 PUSH1 0xC0 SHL PUSH2 0xDB4 JUMP JUMPDEST PUSH2 0x8BA PUSH8 0x1D2864E93ECA153C PUSH1 0xC0 SHL PUSH2 0xDB4 JUMP JUMPDEST CALLER PUSH20 0xFFFFFFFFFFFFFFFFFFFFFFFFFFFFFFFFFFFFFFFF AND PUSH2 0x8FC DUP3 SWAP1 DUP2 ISZERO MUL SWAP1 PUSH1 0x40 MLOAD PUSH1 0x0 PUSH1 0x40 MLOAD DUP1 DUP4 SUB DUP2 DUP6 DUP9 DUP9 CALL SWAP4 POP POP POP POP ISZERO DUP1 ISZERO PUSH2 0x900 JUMPI RETURNDATASIZE PUSH1 0x0 DUP1 RETURNDATACOPY RETURNDATASIZE PUSH1 0x0 REVERT JUMPDEST POP PUSH2 0x91B JUMP JUMPDEST PUSH2 0x91A PUSH8 0xCFAF3D5A6D767C98 PUSH1 0xC0 SHL PUSH2 0xDB4 JUMP JUMPDEST JUMPDEST PUSH2 0x92F PUSH8 0xE5780C9B3BCD368C PUSH1 0xC0 SHL PUSH2 0xDB4 JUMP JUMPDEST PUSH2 0x943 PUSH8 0x7A6B0EDB274859B2 PUSH1 0xC0 SHL PUSH2 0xDB4 JUMP JUMPDEST DUP3 PUSH1 0x0 ADD PUSH1 0x0 SWAP1 SLOAD SWAP1 PUSH2 0x100 EXP SWAP1 DIV PUSH20 0xFFFFFFFFFFFFFFFFFFFFFFFFFFFFFFFFFFFFFFFF AND PUSH20 0xFFFFFFFFFFFFFFFFFFFFFFFFFFFFFFFFFFFFFFFF AND PUSH2 0x8FC PUSH1 0x64 PUSH1 0xA DUP6 PUSH2 0x990 SWAP2 SWAP1 PUSH2 0x1258 JUMP JUMPDEST PUSH2 0x99A SWAP2 SWAP1 PUSH2 0x13A1 JUMP JUMPDEST DUP5 PUSH2 0x9A5 SWAP2 SWAP1 PUSH2 0x1224 JUMP JUMPDEST SWAP1 DUP2 ISZERO MUL SWAP1 PUSH1 0x40 MLOAD PUSH1 0x0 PUSH1 0x40 MLOAD DUP1 DUP4 SUB DUP2 DUP6 DUP9 DUP9 CALL SWAP4 POP POP POP POP ISZERO DUP1 ISZERO PUSH2 0x9D0 JUMPI RETURNDATASIZE PUSH1 0x0 DUP1 RETURNDATACOPY RETURNDATASIZE PUSH1 0x0 REVERT JUMPDEST POP PUSH2 0x9E5 PUSH8 0xF8D6E864A793F0C6 PUSH1 0xC0 SHL PUSH2 0xDB4 JUMP JUMPDEST PUSH2 0x9F9 PUSH8 0x64E5E040FBEECABA PUSH1 0xC0 SHL PUSH2 0xDB4 JUMP JUMPDEST PUSH32 0xBAFC4BDA865D4D1F8D5B16F883E996FDE0FE71112FAC81503876D35375694400 DUP5 DUP4 CALLER PUSH1 0x40 MLOAD PUSH2 0xA2C SWAP4 SWAP3 SWAP2 SWAP1 PUSH2 0x13D2 JUMP JUMPDEST PUSH1 0x40 MLOAD DUP1 SWAP2 SUB SWAP1 LOG1 POP POP POP POP JUMP JUMPDEST PUSH2 0xA4E PUSH8 0x25D6B84801237CF8 PUSH1 0xC0 SHL PUSH2 0xDB4 JUMP JUMPDEST PUSH2 0xA62 PUSH8 0x781F56BE641C9DD0 PUSH1 0xC0 SHL PUSH2 0xDB4 JUMP JUMPDEST PUSH2 0xA76 PUSH8 0xC25B7B4293951BF9 PUSH1 0xC0 SHL PUSH2 0xDB4 JUMP JUMPDEST PUSH1 0x0 DUP1 DUP3 EQ DUP1 ISZERO PUSH2 0xA97 JUMPI POP PUSH2 0xA96 PUSH8 0xC2C5F0653A01F239 PUSH1 0xC0 SHL PUSH2 0xDB7 JUMP JUMPDEST JUMPDEST DUP1 PUSH2 0xAB2 JUMPI POP PUSH2 0xAB1 PUSH8 0xA27C825317D42E52 PUSH1 0xC0 SHL PUSH2 0xDC2 JUMP JUMPDEST JUMPDEST PUSH2 0xABC JUMPI DUP2 PUSH2 0xAC1 JUMP JUMPDEST PUSH3 0x2A300 JUMPDEST SWAP1 POP PUSH2 0xAD7 PUSH8 0x919ADF17CBB0EFC3 PUSH1 0xC0 SHL PUSH2 0xDB4 JUMP JUMPDEST PUSH2 0xAEB PUSH8 0x9DA687CA2470A73A PUSH1 0xC0 SHL PUSH2 0xDB4 JUMP JUMPDEST PUSH2 0xAFF PUSH8 0xAABFAFEB876136FB PUSH1 0xC0 SHL PUSH2 0xDB4 JUMP JUMPDEST DUP1 DUP6 PUSH2 0xB0B SWAP2 SWAP1 PUSH2 0x1258 JUMP JUMPDEST DUP7 LT ISZERO PUSH2 0xB4D JUMPI PUSH1 0x40 MLOAD PUSH32 0x8C379A000000000000000000000000000000000000000000000000000000000 DUP2 MSTORE PUSH1 0x4 ADD PUSH2 0xB44 SWAP1 PUSH2 0x1455 JUMP JUMPDEST PUSH1 0x40 MLOAD DUP1 SWAP2 SUB SWAP1 REVERT JUMPDEST PUSH2 0xB61 PUSH8 0xA50CC39222EFB7D8 PUSH1 0xC0 SHL PUSH2 0xDB4 JUMP JUMPDEST PUSH2 0xB75 PUSH8 0x6F697EDC350E7916 PUSH1 0xC0 SHL PUSH2 0xDB4 JUMP JUMPDEST PUSH2 0xB89 PUSH8 0xA3EFC2BBC227AB30 PUSH1 0xC0 SHL PUSH2 0xDB4 JUMP JUMPDEST PUSH1 0x0 PUSH1 0x40 MLOAD DUP1 PUSH2 0x100 ADD PUSH1 0x40 MSTORE DUP1 CALLER PUSH20 0xFFFFFFFFFFFFFFFFFFFFFFFFFFFFFFFFFFFFFFFF AND DUP2 MSTORE PUSH1 0x20 ADD DUP9 DUP2 MSTORE PUSH1 0x20 ADD DUP9 DUP2 MSTORE PUSH1 0x20 ADD TIMESTAMP DUP2 MSTORE PUSH1 0x20 ADD DUP4 TIMESTAMP PUSH2 0xBD1 SWAP2 SWAP1 PUSH2 0x1475 JUMP JUMPDEST DUP2 MSTORE PUSH1 0x20 ADD DUP8 DUP2 MSTORE PUSH1 0x20 ADD DUP7 DUP7 DUP1 DUP1 PUSH1 0x1F ADD PUSH1 0x20 DUP1 SWAP2 DIV MUL PUSH1 0x20 ADD PUSH1 0x40 MLOAD SWAP1 DUP2 ADD PUSH1 0x40 MSTORE DUP1 SWAP4 SWAP3 SWAP2 SWAP1 DUP2 DUP2 MSTORE PUSH1 0x20 ADD DUP4 DUP4 DUP1 DUP3 DUP5 CALLDATACOPY PUSH1 0x0 DUP2 DUP5 ADD MSTORE PUSH1 0x1F NOT PUSH1 0x1F DUP3 ADD AND SWAP1 POP DUP1 DUP4 ADD SWAP3 POP POP POP POP POP POP POP DUP2 MSTORE PUSH1 0x20 ADD PUSH1 0x0 ISZERO ISZERO DUP2 MSTORE POP SWAP1 POP PUSH2 0xC43 PUSH8 0x17DF9644BDD124BF PUSH1 0xC0 SHL PUSH2 0xDB4 JUMP JUMPDEST PUSH2 0xC57 PUSH8 0x699043A19BC1B159 PUSH1 0xC0 SHL PUSH2 0xDB4 JUMP JUMPDEST PUSH1 0x1 DUP2 SWAP1 DUP1 PUSH1 0x1 DUP2 SLOAD ADD DUP1 DUP3 SSTORE DUP1 SWAP2 POP POP PUSH1 0x1 SWAP1 SUB SWAP1 PUSH1 0x0 MSTORE PUSH1 0x20 PUSH1 0x0 KECCAK256 SWAP1 PUSH1 0x8 MUL ADD PUSH1 0x0 SWAP1 SWAP2 SWAP1 SWAP2 SWAP1 SWAP2 POP PUSH1 0x0 DUP3 ADD MLOAD DUP2 PUSH1 0x0 ADD PUSH1 0x0 PUSH2 0x100 EXP DUP2 SLOAD DUP2 PUSH20 0xFFFFFFFFFFFFFFFFFFFFFFFFFFFFFFFFFFFFFFFF MUL NOT AND SWAP1 DUP4 PUSH20 0xFFFFFFFFFFFFFFFFFFFFFFFFFFFFFFFFFFFFFFFF AND MUL OR SWAP1 SSTORE POP PUSH1 0x20 DUP3 ADD MLOAD DUP2 PUSH1 0x1 ADD SSTORE PUSH1 0x40 DUP3 ADD MLOAD DUP2 PUSH1 0x2 ADD SSTORE PUSH1 0x60 DUP3 ADD MLOAD DUP2 PUSH1 0x3 ADD SSTORE PUSH1 0x80 DUP3 ADD MLOAD DUP2 PUSH1 0x4 ADD SSTORE PUSH1 0xA0 DUP3 ADD MLOAD DUP2 PUSH1 0x5 ADD SSTORE PUSH1 0xC0 DUP3 ADD MLOAD DUP2 PUSH1 0x6 ADD SWAP1 DUP2 PUSH2 0xD11 SWAP2 SWAP1 PUSH2 0x1684 JUMP JUMPDEST POP PUSH1 0xE0 DUP3 ADD MLOAD DUP2 PUSH1 0x7 ADD PUSH1 0x0 PUSH2 0x100 EXP DUP2 SLOAD DUP2 PUSH1 0xFF MUL NOT AND SWAP1 DUP4 ISZERO ISZERO MUL OR SWAP1 SSTORE POP POP POP PUSH2 0xD48 PUSH8 0xDED12F6C954F1ACF PUSH1 0xC0 SHL PUSH2 0xDB4 JUMP JUMPDEST PUSH2 0xD5C PUSH8 0x68F76050FCAC0FA7 PUSH1 0xC0 SHL PUSH2 0xDB4 JUMP JUMPDEST PUSH32 0x5BF34ED94988E5DCDC7D1FAAA54EB1D3B55F45D5F11457E235AFB21A8EBBE73C PUSH1 0x1 DUP1 DUP1 SLOAD SWAP1 POP PUSH2 0xD8E SWAP2 SWAP1 PUSH2 0x1224 JUMP JUMPDEST DUP7 DUP7 DUP11 DUP7 PUSH1 0x40 MLOAD PUSH2 0xDA3 SWAP6 SWAP5 SWAP4 SWAP3 SWAP2 SWAP1 PUSH2 0x1792 JUMP JUMPDEST PUSH1 0x40 MLOAD DUP1 SWAP2 SUB SWAP1 LOG1 POP POP POP POP POP POP POP JUMP JUMPDEST POP JUMP JUMPDEST PUSH1 0x0 PUSH1 0x1 SWAP1 POP SWAP2 SWAP1 POP JUMP JUMPDEST PUSH1 0x0 SWAP2 SWAP1 POP JUMP JUMPDEST PUSH1 0x0 DUP1 REVERT JUMPDEST PUSH1 0x0 DUP1 REVERT JUMPDEST PUSH1 0x0 DUP2 SWAP1 POP SWAP2 SWAP1 POP JUMP JUMPDEST PUSH2 0xDE6 DUP2 PUSH2 0xDD3 JUMP JUMPDEST DUP2 EQ PUSH2 0xDF1 JUMPI PUSH1 0x0 DUP1 REVERT JUMPDEST POP JUMP JUMPDEST PUSH1 0x0 DUP2 CALLDATALOAD SWAP1 POP PUSH2 0xE03 DUP2 PUSH2 0xDDD JUMP JUMPDEST SWAP3 SWAP2 POP POP JUMP JUMPDEST PUSH1 0x0 PUSH1 0x20 DUP3 DUP5 SUB SLT ISZERO PUSH2 0xE1F JUMPI PUSH2 0xE1E PUSH2 0xDC9 JUMP JUMPDEST JUMPDEST PUSH1 0x0 PUSH2 0xE2D DUP5 DUP3 DUP6 ADD PUSH2 0xDF4 JUMP JUMPDEST SWAP2 POP POP SWAP3 SWAP2 POP POP JUMP JUMPDEST PUSH2 0xE3F DUP2 PUSH2 0xDD3 JUMP JUMPDEST DUP3 MSTORE POP POP JUMP JUMPDEST PUSH1 0x0 PUSH1 0x20 DUP3 ADD SWAP1 POP PUSH2 0xE5A PUSH1 0x0 DUP4 ADD DUP5 PUSH2 0xE36 JUMP JUMPDEST SWAP3 SWAP2 POP POP JUMP JUMPDEST PUSH1 0x0 PUSH20 0xFFFFFFFFFFFFFFFFFFFFFFFFFFFFFFFFFFFFFFFF DUP3 AND SWAP1 POP SWAP2 SWAP1 POP JUMP JUMPDEST PUSH1 0x0 PUSH2 0xE8B DUP3 PUSH2 0xE60 JUMP JUMPDEST SWAP1 POP SWAP2 SWAP1 POP JUMP JUMPDEST PUSH2 0xE9B DUP2 PUSH2 0xE80 JUMP JUMPDEST DUP3 MSTORE POP POP JUMP JUMPDEST PUSH1 0x0 DUP2 MLOAD SWAP1 POP SWAP2 SWAP1 POP JUMP JUMPDEST PUSH1 0x0 DUP3 DUP3 MSTORE PUSH1 0x20 DUP3 ADD SWAP1 POP SWAP3 SWAP2 POP POP JUMP JUMPDEST PUSH1 0x0 JUMPDEST DUP4 DUP2 LT ISZERO PUSH2 0xEDB JUMPI DUP1 DUP3 ADD MLOAD DUP2 DUP5 ADD MSTORE PUSH1 0x20 DUP2 ADD SWAP1 POP PUSH2 0xEC0 JUMP JUMPDEST PUSH1 0x0 DUP5 DUP5 ADD MSTORE POP POP POP POP JUMP JUMPDEST PUSH1 0x0 PUSH1 0x1F NOT PUSH1 0x1F DUP4 ADD AND SWAP1 POP SWAP2 SWAP1 POP JUMP JUMPDEST PUSH1 0x0 PUSH2 0xF03 DUP3 PUSH2 0xEA1 JUMP JUMPDEST PUSH2 0xF0D DUP2 DUP6 PUSH2 0xEAC JUMP JUMPDEST SWAP4 POP PUSH2 0xF1D DUP2 DUP6 PUSH1 0x20 DUP7 ADD PUSH2 0xEBD JUMP JUMPDEST PUSH2 0xF26 DUP2 PUSH2 0xEE7 JUMP JUMPDEST DUP5 ADD SWAP2 POP POP SWAP3 SWAP2 POP POP JUMP JUMPDEST PUSH1 0x0 DUP2 ISZERO ISZERO SWAP1 POP SWAP2 SWAP1 POP JUMP JUMPDEST PUSH2 0xF46 DUP2 PUSH2 0xF31 JUMP JUMPDEST DUP3 MSTORE POP POP JUMP JUMPDEST PUSH1 0x0 PUSH2 0x100 DUP3 ADD SWAP1 POP PUSH2 0xF62 PUSH1 0x0 DUP4 ADD DUP12 PUSH2 0xE92 JUMP JUMPDEST PUSH2 0xF6F PUSH1 0x20 DUP4 ADD DUP11 PUSH2 0xE36 JUMP JUMPDEST PUSH2 0xF7C PUSH1 0x40 DUP4 ADD DUP10 PUSH2 0xE36 JUMP JUMPDEST PUSH2 0xF89 PUSH1 0x60 DUP4 ADD DUP9 PUSH2 0xE36 JUMP JUMPDEST PUSH2 0xF96 PUSH1 0x80 DUP4 ADD DUP8 PUSH2 0xE36 JUMP JUMPDEST PUSH2 0xFA3 PUSH1 0xA0 DUP4 ADD DUP7 PUSH2 0xE36 JUMP JUMPDEST DUP2 DUP2 SUB PUSH1 0xC0 DUP4 ADD MSTORE PUSH2 0xFB5 DUP2 DUP6 PUSH2 0xEF8 JUMP JUMPDEST SWAP1 POP PUSH2 0xFC4 PUSH1 0xE0 DUP4 ADD DUP5 PUSH2 0xF3D JUMP JUMPDEST SWAP10 SWAP9 POP POP POP POP POP POP POP POP POP JUMP JUMPDEST PUSH1 0x0 PUSH2 0xFDC DUP3 PUSH2 0xE60 JUMP JUMPDEST SWAP1 POP SWAP2 SWAP1 POP JUMP JUMPDEST PUSH2 0xFEC DUP2 PUSH2 0xFD1 JUMP JUMPDEST DUP3 MSTORE POP POP JUMP JUMPDEST PUSH1 0x0 PUSH1 0x20 DUP3 ADD SWAP1 POP PUSH2 0x1007 PUSH1 0x0 DUP4 ADD DUP5 PUSH2 0xFE3 JUMP JUMPDEST SWAP3 SWAP2 POP POP JUMP JUMPDEST PUSH1 0x0 DUP1 REVERT JUMPDEST PUSH1 0x0 DUP1 REVERT JUMPDEST PUSH1 0x0 DUP1 REVERT JUMPDEST PUSH1 0x0 DUP1 DUP4 PUSH1 0x1F DUP5 ADD SLT PUSH2 0x1032 JUMPI PUSH2 0x1031 PUSH2 0x100D JUMP JUMPDEST JUMPDEST DUP3 CALLDATALOAD SWAP1 POP PUSH8 0xFFFFFFFFFFFFFFFF DUP2 GT ISZERO PUSH2 0x104F JUMPI PUSH2 0x104E PUSH2 0x1012 JUMP JUMPDEST JUMPDEST PUSH1 0x20 DUP4 ADD SWAP2 POP DUP4 PUSH1 0x1 DUP3 MUL DUP4 ADD GT ISZERO PUSH2 0x106B JUMPI PUSH2 0x106A PUSH2 0x1017 JUMP JUMPDEST JUMPDEST SWAP3 POP SWAP3 SWAP1 POP JUMP JUMPDEST PUSH1 0x0 DUP1 PUSH1 0x0 DUP1 PUSH1 0x0 PUSH1 0x80 DUP7 DUP9 SUB SLT ISZERO PUSH2 0x108E JUMPI PUSH2 0x108D PUSH2 0xDC9 JUMP JUMPDEST JUMPDEST PUSH1 0x0 PUSH2 0x109C DUP9 DUP3 DUP10 ADD PUSH2 0xDF4 JUMP JUMPDEST SWAP6 POP POP PUSH1 0x20 PUSH2 0x10AD DUP9 DUP3 DUP10 ADD PUSH2 0xDF4 JUMP JUMPDEST SWAP5 POP POP PUSH1 0x40 DUP7 ADD CALLDATALOAD PUSH8 0xFFFFFFFFFFFFFFFF DUP2 GT ISZERO PUSH2 0x10CE JUMPI PUSH2 0x10CD PUSH2 0xDCE JUMP JUMPDEST JUMPDEST PUSH2 0x10DA DUP9 DUP3 DUP10 ADD PUSH2 0x101C JUMP JUMPDEST SWAP4 POP SWAP4 POP POP PUSH1 0x60 PUSH2 0x10ED DUP9 DUP3 DUP10 ADD PUSH2 0xDF4 JUMP JUMPDEST SWAP2 POP POP SWAP3 SWAP6 POP SWAP3 SWAP6 SWAP1 SWAP4 POP JUMP JUMPDEST PUSH32 0x4E487B7100000000000000000000000000000000000000000000000000000000 PUSH1 0x0 MSTORE PUSH1 0x32 PUSH1 0x4 MSTORE PUSH1 0x24 PUSH1 0x0 REVERT JUMPDEST PUSH32 0x4E487B7100000000000000000000000000000000000000000000000000000000 PUSH1 0x0 MSTORE PUSH1 0x22 PUSH1 0x4 MSTORE PUSH1 0x24 PUSH1 0x0 REVERT JUMPDEST PUSH1 0x0 PUSH1 0x2 DUP3 DIV SWAP1 POP PUSH1 0x1 DUP3 AND DUP1 PUSH2 0x1170 JUMPI PUSH1 0x7F DUP3 AND SWAP2 POP JUMPDEST PUSH1 0x20 DUP3 LT DUP2 SUB PUSH2 0x1183 JUMPI PUSH2 0x1182 PUSH2 0x1129 JUMP JUMPDEST JUMPDEST POP SWAP2 SWAP1 POP JUMP JUMPDEST PUSH32 0x53746F7070656421000000000000000000000000000000000000000000000000 PUSH1 0x0 DUP3 ADD MSTORE POP JUMP JUMPDEST PUSH1 0x0 PUSH2 0x11BF PUSH1 0x8 DUP4 PUSH2 0xEAC JUMP JUMPDEST SWAP2 POP PUSH2 0x11CA DUP3 PUSH2 0x1189 JUMP JUMPDEST PUSH1 0x20 DUP3 ADD SWAP1 POP SWAP2 SWAP1 POP JUMP JUMPDEST PUSH1 0x0 PUSH1 0x20 DUP3 ADD SWAP1 POP DUP2 DUP2 SUB PUSH1 0x0 DUP4 ADD MSTORE PUSH2 0x11EE DUP2 PUSH2 0x11B2 JUMP JUMPDEST SWAP1 POP SWAP2 SWAP1 POP JUMP JUMPDEST PUSH32 0x4E487B7100000000000000000000000000000000000000000000000000000000 PUSH1 0x0 MSTORE PUSH1 0x11 PUSH1 0x4 MSTORE PUSH1 0x24 PUSH1 0x0 REVERT JUMPDEST PUSH1 0x0 PUSH2 0x122F DUP3 PUSH2 0xDD3 JUMP JUMPDEST SWAP2 POP PUSH2 0x123A DUP4 PUSH2 0xDD3 JUMP JUMPDEST SWAP3 POP DUP3 DUP3 SUB SWAP1 POP DUP2 DUP2 GT ISZERO PUSH2 0x1252 JUMPI PUSH2 0x1251 PUSH2 0x11F5 JUMP JUMPDEST JUMPDEST SWAP3 SWAP2 POP POP JUMP JUMPDEST PUSH1 0x0 PUSH2 0x1263 DUP3 PUSH2 0xDD3 JUMP JUMPDEST SWAP2 POP PUSH2 0x126E DUP4 PUSH2 0xDD3 JUMP JUMPDEST SWAP3 POP DUP3 DUP3 MUL PUSH2 0x127C DUP2 PUSH2 0xDD3 JUMP JUMPDEST SWAP2 POP DUP3 DUP3 DIV DUP5 EQ DUP4 ISZERO OR PUSH2 0x1293 JUMPI PUSH2 0x1292 PUSH2 0x11F5 JUMP JUMPDEST JUMPDEST POP SWAP3 SWAP2 POP POP JUMP JUMPDEST PUSH32 0x456E646564210000000000000000000000000000000000000000000000000000 PUSH1 0x0 DUP3 ADD MSTORE POP JUMP JUMPDEST PUSH1 0x0 PUSH2 0x12D0 PUSH1 0x6 DUP4 PUSH2 0xEAC JUMP JUMPDEST SWAP2 POP PUSH2 0x12DB DUP3 PUSH2 0x129A JUMP JUMPDEST PUSH1 0x20 DUP3 ADD SWAP1 POP SWAP2 SWAP1 POP JUMP JUMPDEST PUSH1 0x0 PUSH1 0x20 DUP3 ADD SWAP1 POP DUP2 DUP2 SUB PUSH1 0x0 DUP4 ADD MSTORE PUSH2 0x12FF DUP2 PUSH2 0x12C3 JUMP JUMPDEST SWAP1 POP SWAP2 SWAP1 POP JUMP JUMPDEST PUSH32 0x6E6F7420656E6F7567682066756E647300000000000000000000000000000000 PUSH1 0x0 DUP3 ADD MSTORE POP JUMP JUMPDEST PUSH1 0x0 PUSH2 0x133C PUSH1 0x10 DUP4 PUSH2 0xEAC JUMP JUMPDEST SWAP2 POP PUSH2 0x1347 DUP3 PUSH2 0x1306 JUMP JUMPDEST PUSH1 0x20 DUP3 ADD SWAP1 POP SWAP2 SWAP1 POP JUMP JUMPDEST PUSH1 0x0 PUSH1 0x20 DUP3 ADD SWAP1 POP DUP2 DUP2 SUB PUSH1 0x0 DUP4 ADD MSTORE PUSH2 0x136B DUP2 PUSH2 0x132F JUMP JUMPDEST SWAP1 POP SWAP2 SWAP1 POP JUMP JUMPDEST PUSH32 0x4E487B7100000000000000000000000000000000000000000000000000000000 PUSH1 0x0 MSTORE PUSH1 0x12 PUSH1 0x4 MSTORE PUSH1 0x24 PUSH1 0x0 REVERT JUMPDEST PUSH1 0x0 PUSH2 0x13AC DUP3 PUSH2 0xDD3 JUMP JUMPDEST SWAP2 POP PUSH2 0x13B7 DUP4 PUSH2 0xDD3 JUMP JUMPDEST SWAP3 POP DUP3 PUSH2 0x13C7 JUMPI PUSH2 0x13C6 PUSH2 0x1372 JUMP JUMPDEST JUMPDEST DUP3 DUP3 DIV SWAP1 POP SWAP3 SWAP2 POP POP JUMP JUMPDEST PUSH1 0x0 PUSH1 0x60 DUP3 ADD SWAP1 POP PUSH2 0x13E7 PUSH1 0x0 DUP4 ADD DUP7 PUSH2 0xE36 JUMP JUMPDEST PUSH2 0x13F4 PUSH1 0x20 DUP4 ADD DUP6 PUSH2 0xE36 JUMP JUMPDEST PUSH2 0x1401 PUSH1 0x40 DUP4 ADD DUP5 PUSH2 0xFE3 JUMP JUMPDEST SWAP5 SWAP4 POP POP POP POP JUMP JUMPDEST PUSH32 0x696E636F7272656374207374617274696E672070726963650000000000000000 PUSH1 0x0 DUP3 ADD MSTORE POP JUMP JUMPDEST PUSH1 0x0 PUSH2 0x143F PUSH1 0x18 DUP4 PUSH2 0xEAC JUMP JUMPDEST SWAP2 POP PUSH2 0x144A DUP3 PUSH2 0x1409 JUMP JUMPDEST PUSH1 0x20 DUP3 ADD SWAP1 POP SWAP2 SWAP1 POP JUMP JUMPDEST PUSH1 0x0 PUSH1 0x20 DUP3 ADD SWAP1 POP DUP2 DUP2 SUB PUSH1 0x0 DUP4 ADD MSTORE PUSH2 0x146E DUP2 PUSH2 0x1432 JUMP JUMPDEST SWAP1 POP SWAP2 SWAP1 POP JUMP JUMPDEST PUSH1 0x0 PUSH2 0x1480 DUP3 PUSH2 0xDD3 JUMP JUMPDEST SWAP2 POP PUSH2 0x148B DUP4 PUSH2 0xDD3 JUMP JUMPDEST SWAP3 POP DUP3 DUP3 ADD SWAP1 POP DUP1 DUP3 GT ISZERO PUSH2 0x14A3 JUMPI PUSH2 0x14A2 PUSH2 0x11F5 JUMP JUMPDEST JUMPDEST SWAP3 SWAP2 POP POP JUMP JUMPDEST PUSH32 0x4E487B7100000000000000000000000000000000000000000000000000000000 PUSH1 0x0 MSTORE PUSH1 0x41 PUSH1 0x4 MSTORE PUSH1 0x24 PUSH1 0x0 REVERT JUMPDEST PUSH1 0x0 DUP2 SWAP1 POP DUP2 PUSH1 0x0 MSTORE PUSH1 0x20 PUSH1 0x0 KECCAK256 SWAP1 POP SWAP2 SWAP1 POP JUMP JUMPDEST PUSH1 0x0 PUSH1 0x20 PUSH1 0x1F DUP4 ADD DIV SWAP1 POP SWAP2 SWAP1 POP JUMP JUMPDEST PUSH1 0x0 DUP3 DUP3 SHL SWAP1 POP SWAP3 SWAP2 POP POP JUMP JUMPDEST PUSH1 0x0 PUSH1 0x8 DUP4 MUL PUSH2 0x153A PUSH32 0xFFFFFFFFFFFFFFFFFFFFFFFFFFFFFFFFFFFFFFFFFFFFFFFFFFFFFFFFFFFFFFFF DUP3 PUSH2 0x14FD JUMP JUMPDEST PUSH2 0x1544 DUP7 DUP4 PUSH2 0x14FD JUMP JUMPDEST SWAP6 POP DUP1 NOT DUP5 AND SWAP4 POP DUP1 DUP7 AND DUP5 OR SWAP3 POP POP POP SWAP4 SWAP3 POP POP POP JUMP JUMPDEST PUSH1 0x0 DUP2 SWAP1 POP SWAP2 SWAP1 POP JUMP JUMPDEST PUSH1 0x0 PUSH2 0x1581 PUSH2 0x157C PUSH2 0x1577 DUP5 PUSH2 0xDD3 JUMP JUMPDEST PUSH2 0x155C JUMP JUMPDEST PUSH2 0xDD3 JUMP JUMPDEST SWAP1 POP SWAP2 SWAP1 POP JUMP JUMPDEST PUSH1 0x0 DUP2 SWAP1 POP SWAP2 SWAP1 POP JUMP JUMPDEST PUSH2 0x159B DUP4 PUSH2 0x1566 JUMP JUMPDEST PUSH2 0x15AF PUSH2 0x15A7 DUP3 PUSH2 0x1588 JUMP JUMPDEST DUP5 DUP5 SLOAD PUSH2 0x150A JUMP JUMPDEST DUP3 SSTORE POP POP POP POP JUMP JUMPDEST PUSH1 0x0 SWAP1 JUMP JUMPDEST PUSH2 0x15C4 PUSH2 0x15B7 JUMP JUMPDEST PUSH2 0x15CF DUP2 DUP5 DUP5 PUSH2 0x1592 JUMP JUMPDEST POP POP POP JUMP JUMPDEST JUMPDEST DUP2 DUP2 LT ISZERO PUSH2 0x15F3 JUMPI PUSH2 0x15E8 PUSH1 0x0 DUP3 PUSH2 0x15BC JUMP JUMPDEST PUSH1 0x1 DUP2 ADD SWAP1 POP PUSH2 0x15D5 JUMP JUMPDEST POP POP JUMP JUMPDEST PUSH1 0x1F DUP3 GT ISZERO PUSH2 0x1638 JUMPI PUSH2 0x1609 DUP2 PUSH2 0x14D8 JUMP JUMPDEST PUSH2 0x1612 DUP5 PUSH2 0x14ED JUMP JUMPDEST DUP2 ADD PUSH1 0x20 DUP6 LT ISZERO PUSH2 0x1621 JUMPI DUP2 SWAP1 POP JUMPDEST PUSH2 0x1635 PUSH2 0x162D DUP6 PUSH2 0x14ED JUMP JUMPDEST DUP4 ADD DUP3 PUSH2 0x15D4 JUMP JUMPDEST POP POP JUMPDEST POP POP POP JUMP JUMPDEST PUSH1 0x0 DUP3 DUP3 SHR SWAP1 POP SWAP3 SWAP2 POP POP JUMP JUMPDEST PUSH1 0x0 PUSH2 0x165B PUSH1 0x0 NOT DUP5 PUSH1 0x8 MUL PUSH2 0x163D JUMP JUMPDEST NOT DUP1 DUP4 AND SWAP2 POP POP SWAP3 SWAP2 POP POP JUMP JUMPDEST PUSH1 0x0 PUSH2 0x1674 DUP4 DUP4 PUSH2 0x164A JUMP JUMPDEST SWAP2 POP DUP3 PUSH1 0x2 MUL DUP3 OR SWAP1 POP SWAP3 SWAP2 POP POP JUMP JUMPDEST PUSH2 0x168D DUP3 PUSH2 0xEA1 JUMP JUMPDEST PUSH8 0xFFFFFFFFFFFFFFFF DUP2 GT ISZERO PUSH2 0x16A6 JUMPI PUSH2 0x16A5 PUSH2 0x14A9 JUMP JUMPDEST JUMPDEST PUSH2 0x16B0 DUP3 SLOAD PUSH2 0x1158 JUMP JUMPDEST PUSH2 0x16BB DUP3 DUP3 DUP6 PUSH2 0x15F7 JUMP JUMPDEST PUSH1 0x0 PUSH1 0x20 SWAP1 POP PUSH1 0x1F DUP4 GT PUSH1 0x1 DUP2 EQ PUSH2 0x16EE JUMPI PUSH1 0x0 DUP5 ISZERO PUSH2 0x16DC JUMPI DUP3 DUP8 ADD MLOAD SWAP1 POP JUMPDEST PUSH2 0x16E6 DUP6 DUP3 PUSH2 0x1668 JUMP JUMPDEST DUP7 SSTORE POP PUSH2 0x174E JUMP JUMPDEST PUSH1 0x1F NOT DUP5 AND PUSH2 0x16FC DUP7 PUSH2 0x14D8 JUMP JUMPDEST PUSH1 0x0 JUMPDEST DUP3 DUP2 LT ISZERO PUSH2 0x1724 JUMPI DUP5 DUP10 ADD MLOAD DUP3 SSTORE PUSH1 0x1 DUP3 ADD SWAP2 POP PUSH1 0x20 DUP6 ADD SWAP5 POP PUSH1 0x20 DUP2 ADD SWAP1 POP PUSH2 0x16FF JUMP JUMPDEST DUP7 DUP4 LT ISZERO PUSH2 0x1741 JUMPI DUP5 DUP10 ADD MLOAD PUSH2 0x173D PUSH1 0x1F DUP10 AND DUP3 PUSH2 0x164A JUMP JUMPDEST DUP4 SSTORE POP JUMPDEST PUSH1 0x1 PUSH1 0x2 DUP9 MUL ADD DUP9 SSTORE POP POP POP JUMPDEST POP POP POP POP POP POP JUMP JUMPDEST DUP3 DUP2 DUP4 CALLDATACOPY PUSH1 0x0 DUP4 DUP4 ADD MSTORE POP POP POP JUMP JUMPDEST PUSH1 0x0 PUSH2 0x1771 DUP4 DUP6 PUSH2 0xEAC JUMP JUMPDEST SWAP4 POP PUSH2 0x177E DUP4 DUP6 DUP5 PUSH2 0x1756 JUMP JUMPDEST PUSH2 0x1787 DUP4 PUSH2 0xEE7 JUMP JUMPDEST DUP5 ADD SWAP1 POP SWAP4 SWAP3 POP POP POP JUMP JUMPDEST PUSH1 0x0 PUSH1 0x80 DUP3 ADD SWAP1 POP PUSH2 0x17A7 PUSH1 0x0 DUP4 ADD DUP9 PUSH2 0xE36 JUMP JUMPDEST DUP2 DUP2 SUB PUSH1 0x20 DUP4 ADD MSTORE PUSH2 0x17BA DUP2 DUP7 DUP9 PUSH2 0x1765 JUMP JUMPDEST SWAP1 POP PUSH2 0x17C9 PUSH1 0x40 DUP4 ADD DUP6 PUSH2 0xE36 JUMP JUMPDEST PUSH2 0x17D6 PUSH1 0x60 DUP4 ADD DUP5 PUSH2 0xE36 JUMP JUMPDEST SWAP7 SWAP6 POP POP POP POP POP POP JUMP INVALID LOG2 PUSH5 0x6970667358 0x22 SLT KECCAK256 EXTCODEHASH 0x27 0xB8 0xD3 0x5F SHR PUSH24 0x7A5BFC84AB89A988A2B6AA49506A0896438FDFBC5E17F23E CODECOPY PUSH5 0x736F6C6343 STOP ADDMOD SLT STOP CALLER "},"methodIdentifiers":{"auctions(uint256)":"571a26a0","buy(uint256)":"d96a094a","createAuction(uint256,uint256,string,uint256)":"e9835d15","getPriceFor(uint256)":"4534cd9c","owner()":"8da5cb5b"}}}}}